{
  "transactions": [
    {
      "hash": null,
      "transactionType": "CALL",
      "contractName": null,
      "contractAddress": "0xbac010c512ed210fc69f0ba095be6052647332db",
      "function": "applyChainUpdates((uint64,bool,bytes,bytes,(bool,uint128,uint128),(bool,uint128,uint128))[])",
      "arguments": [
        "[(6898391096552792247, true, 0x0000000000000000000000003d1b01885b13d34152292b5a24095e66c953b326, 0x0000000000000000000000000f1edf7019069306afeebdf14807968bf8d24c95, (false, 0, 0), (false, 0, 0))]"
      ],
      "transaction": {
        "from": "0x325e974b12e37eb8a2bbc785a01dcd541b77a5db",
        "to": "0xbac010c512ed210fc69f0ba095be6052647332db",
        "gas": "0x50b74",
        "value": "0x0",
        "input": "0xdb6327dc0000000000000000000000000000000000000000000000000000000000000020000000000000000000000000000000000000000000000000000000000000000100000000000000000000000000000000000000000000000000000000000000200000000000000000000000000000000000000000000000005fbc02272fbf20b700000000000000000000000000000000000000000000000000000000000000010000000000000000000000000000000000000000000000000000000000000140000000000000000000000000000000000000000000000000000000000000018000000000000000000000000000000000000000000000000000000000000000000000000000000000000000000000000000000000000000000000000000000000000000000000000000000000000000000000000000000000000000000000000000000000000000000000000000000000000000000000000000000000000000000000000000000000000000000000000000000000000000000000000000000000000000000000000000000000000000000000000000000000000000000000000000000000000000000000000000000000000000000000000000000000000000200000000000000000000000003d1b01885b13d34152292b5a24095e66c953b32600000000000000000000000000000000000000000000000000000000000000200000000000000000000000000f1edf7019069306afeebdf14807968bf8d24c95",
        "nonce": "0x20e",
        "chainId": "0xaa36a7"
      },
      "additionalContracts": [],
      "isFixedGasLimit": false
    }
  ],
  "receipts": [],
  "libraries": [],
  "pending": [],
  "returns": {},
  "timestamp": 1740848064,
  "chain": 11155111,
  "commit": "29e9245"
}