{
  "transactions": [
    {
      "hash": "0xdac7a1985b60a8671941f4833cc77b7e2cb7c99a75924e90b4580e43eceb5024",
      "transactionType": "CALL",
      "contractName": null,
      "contractAddress": "0xfd4050ba32d384eff38ad66293758eeb913cadc3",
      "function": "applyChainUpdates((uint64,bool,bytes,bytes,(bool,uint128,uint128),(bool,uint128,uint128))[])",
      "arguments": [
        "[(6898391096552792247, true, 0x0000000000000000000000006eaf2011709137d537daf095d0cdf8157d9371fa, 0x000000000000000000000000342ab7e2f02b77930b1009ed6b513962eacdc426, (false, 0, 0), (false, 0, 0))]"
      ],
      "transaction": {
        "from": "0x325e974b12e37eb8a2bbc785a01dcd541b77a5db",
        "to": "0xfd4050ba32d384eff38ad66293758eeb913cadc3",
        "gas": "0x50b74",
        "value": "0x0",
        "input": "0xdb6327dc0000000000000000000000000000000000000000000000000000000000000020000000000000000000000000000000000000000000000000000000000000000100000000000000000000000000000000000000000000000000000000000000200000000000000000000000000000000000000000000000005fbc02272fbf20b700000000000000000000000000000000000000000000000000000000000000010000000000000000000000000000000000000000000000000000000000000140000000000000000000000000000000000000000000000000000000000000018000000000000000000000000000000000000000000000000000000000000000000000000000000000000000000000000000000000000000000000000000000000000000000000000000000000000000000000000000000000000000000000000000000000000000000000000000000000000000000000000000000000000000000000000000000000000000000000000000000000000000000000000000000000000000000000000000000000000000000000000000000000000000000000000000000000000000000000000000000000000000000000000000000000000000200000000000000000000000006eaf2011709137d537daf095d0cdf8157d9371fa0000000000000000000000000000000000000000000000000000000000000020000000000000000000000000342ab7e2f02b77930b1009ed6b513962eacdc426",
        "nonce": "0x232",
        "chainId": "0xaa36a7"
      },
      "additionalContracts": [],
      "isFixedGasLimit": false
    }
  ],
  "receipts": [
    {
      "status": "0x1",
      "cumulativeGasUsed": "0x9ed9a2",
      "logs": [
        {
          "address": "0xfd4050ba32d384eff38ad66293758eeb913cadc3",
          "topics": [
            "0x8d340f17e19058004c20453540862a9c62778504476f6756755cb33bcd6c38c2"
          ],
          "data": "0x0000000000000000000000000000000000000000000000005fbc02272fbf20b700000000000000000000000000000000000000000000000000000000000001000000000000000000000000000000000000000000000000000000000000000000000000000000000000000000000000000000000000000000000000000000000000000000000000000000000000000000000000000000000000000000000000000000000000000000000000000000000000000000000000000000000000000000000000000000000000000000000000000000000000000000000000000000000000000000000000000000000000000000000000000000000000000000000000000000000000000000000000000000000000000000000000000000000000000020000000000000000000000000342ab7e2f02b77930b1009ed6b513962eacdc426",
          "blockHash": "0x696b9e9abd476cde9a851ca56a65de5d742057666586e28fb42bc243db21c27d",
          "blockNumber": "0x773778",
          "transactionHash": "0xdac7a1985b60a8671941f4833cc77b7e2cb7c99a75924e90b4580e43eceb5024",
          "transactionIndex": "0x96",
          "logIndex": "0x91",
          "removed": false
        }
      ],
      "logsBloom": "0x20000000000000400000000000000000000000000000000000000000000000000000000000000000000000000000000000000000000000000004000000000000000000000000000000000000000000000000000000000000000000000000000000000000000000080000000000000000000000000000000000000000000000000000000000000000000000000000000000000000000000000000000000000000000000000000000000000000000000000000000000000100000000000000000000000000000000000000000000000000000000000000000000000000000000000000000000000000000000000000000000000000000000000100000000000000",
      "type": "0x2",
      "transactionHash": "0xdac7a1985b60a8671941f4833cc77b7e2cb7c99a75924e90b4580e43eceb5024",
      "transactionIndex": "0x96",
      "blockHash": "0x696b9e9abd476cde9a851ca56a65de5d742057666586e28fb42bc243db21c27d",
      "blockNumber": "0x773778",
      "gasUsed": "0x3a6fe",
      "effectiveGasPrice": "0x127b5259",
      "from": "0x325e974b12e37eb8a2bbc785a01dcd541b77a5db",
      "to": "0xfd4050ba32d384eff38ad66293758eeb913cadc3",
      "contractAddress": null
    }
  ],
  "libraries": [],
  "pending": [],
  "returns": {},
  "timestamp": 1740865441,
  "chain": 11155111,
  "commit": "29e9245"
}