{
  "transactions": [
    {
      "hash": "0xc37f919d2eecbbd44483465d65438fbe36849e25f5ad6b506fcdaf551c238277",
      "transactionType": "CALL",
      "contractName": null,
      "contractAddress": "0xa7d32e7c3db3341e5ddad9dd799cd7fddea96075",
      "function": "applyChainUpdates((uint64,bool,bytes,bytes,(bool,uint128,uint128),(bool,uint128,uint128))[])",
      "arguments": [
        "[(6898391096552792247, true, 0x00000000000000000000000058ca42841d17d2143af4e1f539bdf695160d775c, 0x000000000000000000000000e9193fa3830219ddc6478591eb0e04c7f13bad96, (false, 0, 0), (false, 0, 0))]"
      ],
      "transaction": {
        "from": "0x325e974b12e37eb8a2bbc785a01dcd541b77a5db",
        "to": "0xa7d32e7c3db3341e5ddad9dd799cd7fddea96075",
        "gas": "0x50b74",
        "value": "0x0",
        "input": "0xdb6327dc0000000000000000000000000000000000000000000000000000000000000020000000000000000000000000000000000000000000000000000000000000000100000000000000000000000000000000000000000000000000000000000000200000000000000000000000000000000000000000000000005fbc02272fbf20b7000000000000000000000000000000000000000000000000000000000000000100000000000000000000000000000000000000000000000000000000000001400000000000000000000000000000000000000000000000000000000000000180000000000000000000000000000000000000000000000000000000000000000000000000000000000000000000000000000000000000000000000000000000000000000000000000000000000000000000000000000000000000000000000000000000000000000000000000000000000000000000000000000000000000000000000000000000000000000000000000000000000000000000000000000000000000000000000000000000000000000000000000000000000000000000000000000000000000000000000000000000000000000000000000000000000000002000000000000000000000000058ca42841d17d2143af4e1f539bdf695160d775c0000000000000000000000000000000000000000000000000000000000000020000000000000000000000000e9193fa3830219ddc6478591eb0e04c7f13bad96",
        "nonce": "0x218",
        "chainId": "0xaa36a7"
      },
      "additionalContracts": [],
      "isFixedGasLimit": false
    }
  ],
  "receipts": [
    {
      "status": "0x1",
      "cumulativeGasUsed": "0xa6960b",
      "logs": [
        {
          "address": "0xa7d32e7c3db3341e5ddad9dd799cd7fddea96075",
          "topics": [
            "0x8d340f17e19058004c20453540862a9c62778504476f6756755cb33bcd6c38c2"
          ],
          "data": "0x0000000000000000000000000000000000000000000000005fbc02272fbf20b700000000000000000000000000000000000000000000000000000000000001000000000000000000000000000000000000000000000000000000000000000000000000000000000000000000000000000000000000000000000000000000000000000000000000000000000000000000000000000000000000000000000000000000000000000000000000000000000000000000000000000000000000000000000000000000000000000000000000000000000000000000000000000000000000000000000000000000000000000000000000000000000000000000000000000000000000000000000000000000000000000000000000000000000000000020000000000000000000000000e9193fa3830219ddc6478591eb0e04c7f13bad96",
          "blockHash": "0x9b3faec6c1f4d98e12e014421e609c785010029475f0a29957932ad882444a0d",
          "blockNumber": "0x773227",
          "transactionHash": "0xc37f919d2eecbbd44483465d65438fbe36849e25f5ad6b506fcdaf551c238277",
          "transactionIndex": "0x83",
          "logIndex": "0xbc",
          "removed": false
        }
      ],
      "logsBloom": "0x00000000000000400000000000000000000000000000000000000000000000000000000000000000008000000000000000000000000000000004000000000000000000000000000000000000000000000000000000000000000000000000000000000000000000000000000000000000000000000000000000000000000000000000000000008000000000000000000000000000000000000000000000000000000000000000000000000000000000000000000000000000000000000000000000000000000000000000000000000000000000400000000000000000000000000000000000000000000000000000000000000000000000000100000000000000",
      "type": "0x2",
      "transactionHash": "0xc37f919d2eecbbd44483465d65438fbe36849e25f5ad6b506fcdaf551c238277",
      "transactionIndex": "0x83",
      "blockHash": "0x9b3faec6c1f4d98e12e014421e609c785010029475f0a29957932ad882444a0d",
      "blockNumber": "0x773227",
      "gasUsed": "0x3a6fe",
      "effectiveGasPrice": "0x1d85ade37",
      "from": "0x325e974b12e37eb8a2bbc785a01dcd541b77a5db",
      "to": "0xa7d32e7c3db3341e5ddad9dd799cd7fddea96075",
      "contractAddress": null
    }
  ],
  "libraries": [],
  "pending": [],
  "returns": {},
  "timestamp": 1740848556,
  "chain": 11155111,
  "commit": "29e9245"
}