{
  "transactions": [
    {
      "hash": "0x97e7b7bf9b42fd6f1c9662755960e7d646bb4dea4889e6156b1f34579c4b789e",
      "transactionType": "CALL",
      "contractName": null,
      "contractAddress": "0x4f1a5fdd7217c2506167a7ee95e1e38952cd204b",
      "function": "applyChainUpdates((uint64,bool,bytes,bytes,(bool,uint128,uint128),(bool,uint128,uint128))[])",
      "arguments": [
        "[(6898391096552792247, true, 0x000000000000000000000000fc3cec168a867a6789c91fd26cd0d440fccac188, 0x0000000000000000000000003efb5a4ebea8e060fd02790d8f0336f24b3f4fdc, (false, 0, 0), (false, 0, 0))]"
      ],
      "transaction": {
        "from": "0x325e974b12e37eb8a2bbc785a01dcd541b77a5db",
        "to": "0x4f1a5fdd7217c2506167a7ee95e1e38952cd204b",
        "gas": "0x50b74",
        "value": "0x0",
        "input": "0xdb6327dc0000000000000000000000000000000000000000000000000000000000000020000000000000000000000000000000000000000000000000000000000000000100000000000000000000000000000000000000000000000000000000000000200000000000000000000000000000000000000000000000005fbc02272fbf20b70000000000000000000000000000000000000000000000000000000000000001000000000000000000000000000000000000000000000000000000000000014000000000000000000000000000000000000000000000000000000000000001800000000000000000000000000000000000000000000000000000000000000000000000000000000000000000000000000000000000000000000000000000000000000000000000000000000000000000000000000000000000000000000000000000000000000000000000000000000000000000000000000000000000000000000000000000000000000000000000000000000000000000000000000000000000000000000000000000000000000000000000000000000000000000000000000000000000000000000000000000000000000000000000000000000000000020000000000000000000000000fc3cec168a867a6789c91fd26cd0d440fccac18800000000000000000000000000000000000000000000000000000000000000200000000000000000000000003efb5a4ebea8e060fd02790d8f0336f24b3f4fdc",
        "nonce": "0x226",
        "chainId": "0xaa36a7"
      },
      "additionalContracts": [],
      "isFixedGasLimit": false
    }
  ],
  "receipts": [
    {
      "status": "0x1",
      "cumulativeGasUsed": "0x852b3e",
      "logs": [
        {
          "address": "0x4f1a5fdd7217c2506167a7ee95e1e38952cd204b",
          "topics": [
            "0x8d340f17e19058004c20453540862a9c62778504476f6756755cb33bcd6c38c2"
          ],
          "data": "0x0000000000000000000000000000000000000000000000005fbc02272fbf20b7000000000000000000000000000000000000000000000000000000000000010000000000000000000000000000000000000000000000000000000000000000000000000000000000000000000000000000000000000000000000000000000000000000000000000000000000000000000000000000000000000000000000000000000000000000000000000000000000000000000000000000000000000000000000000000000000000000000000000000000000000000000000000000000000000000000000000000000000000000000000000000000000000000000000000000000000000000000000000000000000000000000000000000000000000000200000000000000000000000003efb5a4ebea8e060fd02790d8f0336f24b3f4fdc",
          "blockHash": "0xac5deac40c8c07a3dbd5d22738d6d2b3960ec87d2ff00773eed8fd9545582e5b",
          "blockNumber": "0x77363e",
          "transactionHash": "0x97e7b7bf9b42fd6f1c9662755960e7d646bb4dea4889e6156b1f34579c4b789e",
          "transactionIndex": "0x9e",
          "logIndex": "0x6a",
          "removed": false
        }
      ],
      "logsBloom": "0x00000000000000400000000000000000000000000000000000000000000000000000000000000000000000000000000000000000000000000004000000000000000000000000000000000000000000000000000000000000000000000020000000000000000000000000000000000000000000000000000000000000000000000000000000000000000000000000000000000000000000000000000000000000000000000000000000000000000000000000000000000000000000000000000000020000000000000000000000000000000000000000000000000000000000000000000002000000000000000000000000000000000000000100000000000000",
      "type": "0x2",
      "transactionHash": "0x97e7b7bf9b42fd6f1c9662755960e7d646bb4dea4889e6156b1f34579c4b789e",
      "transactionIndex": "0x9e",
      "blockHash": "0xac5deac40c8c07a3dbd5d22738d6d2b3960ec87d2ff00773eed8fd9545582e5b",
      "blockNumber": "0x77363e",
      "gasUsed": "0x3a6fe",
      "effectiveGasPrice": "0x1f1fb9c65",
      "from": "0x325e974b12e37eb8a2bbc785a01dcd541b77a5db",
      "to": "0x4f1a5fdd7217c2506167a7ee95e1e38952cd204b",
      "contractAddress": null
    }
  ],
  "libraries": [],
  "pending": [],
  "returns": {},
  "timestamp": 1740861552,
  "chain": 11155111,
  "commit": "29e9245"
}