{
  "transactions": [
    {
      "hash": "0x48e1b5b4619a4355fde435b5e34832b309fd014fd38ec77ffaa8fefb46146377",
      "transactionType": "CALL",
      "contractName": null,
      "contractAddress": "0x779877a7b0d9e8603169ddbd7836e478b4624789",
      "function": "approve(address,uint256)",
      "arguments": [
        "0x0BF3dE8c5D3e8A2B34D2BEeB17ABfCeBaf363A59",
        "18152651489174407"
      ],
      "transaction": {
        "from": "0x325e974b12e37eb8a2bbc785a01dcd541b77a5db",
        "to": "0x779877a7b0d9e8603169ddbd7836e478b4624789",
        "gas": "0x1081f",
        "value": "0x0",
        "input": "0x095ea7b30000000000000000000000000bf3de8c5d3e8a2b34d2beeb17abfcebaf363a5900000000000000000000000000000000000000000000000000407dbd87be6387",
        "nonce": "0x234",
        "chainId": "0xaa36a7"
      },
      "additionalContracts": [],
      "isFixedGasLimit": false
    },
    {
      "hash": "0x865333ae754ae99b6e734d2549e24a0246234940f2131ee84b37737f2bc97829",
      "transactionType": "CALL",
      "contractName": null,
      "contractAddress": "0x95a86ece307cf6288f9fae32ff467b886e15a56b",
      "function": "approve(address,uint256)",
      "arguments": [
        "0x0BF3dE8c5D3e8A2B34D2BEeB17ABfCeBaf363A59",
        "10000000000000000"
      ],
      "transaction": {
        "from": "0x325e974b12e37eb8a2bbc785a01dcd541b77a5db",
        "to": "0x95a86ece307cf6288f9fae32ff467b886e15a56b",
        "gas": "0xfa43",
        "value": "0x0",
        "input": "0x095ea7b30000000000000000000000000bf3de8c5d3e8a2b34d2beeb17abfcebaf363a59000000000000000000000000000000000000000000000000002386f26fc10000",
        "nonce": "0x235",
        "chainId": "0xaa36a7"
      },
      "additionalContracts": [],
      "isFixedGasLimit": false
    },
    {
      "hash": "0xf90456874a676051ca582265f05f4b24a520d4b36a5714e2212f4630c357e62d",
      "transactionType": "CALL",
      "contractName": null,
      "contractAddress": "0x0bf3de8c5d3e8a2b34d2beeb17abfcebaf363a59",
      "function": "ccipSend(uint64,(bytes,bytes,(address,uint256)[],address,bytes))",
      "arguments": [
        "6898391096552792247",
        "(0x000000000000000000000000325e974b12e37eb8a2bbc785a01dcd541b77a5db, 0x, [(0x95A86Ece307Cf6288F9fae32Ff467b886e15a56b, 10000000000000000)], 0x779877A7B0D9E8603169DdbD7836e478b4624789, 0x97a657c90000000000000000000000000000000000000000000000000000000000000000)"
      ],
      "transaction": {
        "from": "0x325e974b12e37eb8a2bbc785a01dcd541b77a5db",
        "to": "0x0bf3de8c5d3e8a2b34d2beeb17abfcebaf363a59",
        "gas": "0x55b44",
        "value": "0x0",
        "input": "0x96f4e9f90000000000000000000000000000000000000000000000005fbc02272fbf20b7000000000000000000000000000000000000000000000000000000000000004000000000000000000000000000000000000000000000000000000000000000a000000000000000000000000000000000000000000000000000000000000000e00000000000000000000000000000000000000000000000000000000000000100000000000000000000000000779877a7b0d9e8603169ddbd7836e478b462478900000000000000000000000000000000000000000000000000000000000001600000000000000000000000000000000000000000000000000000000000000020000000000000000000000000325e974b12e37eb8a2bbc785a01dcd541b77a5db0000000000000000000000000000000000000000000000000000000000000000000000000000000000000000000000000000000000000000000000000000000100000000000000000000000095a86ece307cf6288f9fae32ff467b886e15a56b000000000000000000000000000000000000000000000000002386f26fc10000000000000000000000000000000000000000000000000000000000000000002497a657c9000000000000000000000000000000000000000000000000000000000000000000000000000000000000000000000000000000000000000000000000",
        "nonce": "0x236",
        "chainId": "0xaa36a7"
      },
      "additionalContracts": [],
      "isFixedGasLimit": false
    }
  ],
  "receipts": [
    {
      "status": "0x1",
      "cumulativeGasUsed": "0x6dbb7d",
      "logs": [
        {
          "address": "0x779877a7b0d9e8603169ddbd7836e478b4624789",
          "topics": [
            "0x8c5be1e5ebec7d5bd14f71427d1e84f3dd0314c0f7b2291e5b200ac8c7c3b925",
            "0x000000000000000000000000325e974b12e37eb8a2bbc785a01dcd541b77a5db",
            "0x0000000000000000000000000bf3de8c5d3e8a2b34d2beeb17abfcebaf363a59"
          ],
          "data": "0x00000000000000000000000000000000000000000000000000407dbd87be6387",
          "blockHash": "0xb4af66fcf1b09d9bc703675527b11f878efabe8b8bd3bd03fa65015ee8728f99",
          "blockNumber": "0x773789",
          "transactionHash": "0x48e1b5b4619a4355fde435b5e34832b309fd014fd38ec77ffaa8fefb46146377",
          "transactionIndex": "0x81",
          "logIndex": "0x59",
          "removed": false
        }
      ],
      "logsBloom": "0x00000004000040000000000000000000000000000000000000000000000000000000000000000000000008000000000000000000000000000000000000200000000000000000000000000000000000000000000000200000000000000000000000000000000100000000000000000000000000000000000000800000000000000000000000000000000000000000800000000000000000000000000000000000020000000000080000000000000000000000000000000000000000000000000000000000000000000000000000000000000000000000000100000000000000000010000000000000000000000000000000000000000000000000000000000000",
      "type": "0x2",
      "transactionHash": "0x48e1b5b4619a4355fde435b5e34832b309fd014fd38ec77ffaa8fefb46146377",
      "transactionIndex": "0x81",
      "blockHash": "0xb4af66fcf1b09d9bc703675527b11f878efabe8b8bd3bd03fa65015ee8728f99",
      "blockNumber": "0x773789",
      "gasUsed": "0xb499",
      "effectiveGasPrice": "0x153ccef7",
      "from": "0x325e974b12e37eb8a2bbc785a01dcd541b77a5db",
      "to": "0x779877a7b0d9e8603169ddbd7836e478b4624789",
      "contractAddress": null
    },
    {
      "status": "0x1",
      "cumulativeGasUsed": "0x6e70ad",
      "logs": [
        {
          "address": "0x95a86ece307cf6288f9fae32ff467b886e15a56b",
          "topics": [
            "0x8c5be1e5ebec7d5bd14f71427d1e84f3dd0314c0f7b2291e5b200ac8c7c3b925",
            "0x000000000000000000000000325e974b12e37eb8a2bbc785a01dcd541b77a5db",
            "0x0000000000000000000000000bf3de8c5d3e8a2b34d2beeb17abfcebaf363a59"
          ],
          "data": "0x000000000000000000000000000000000000000000000000002386f26fc10000",
          "blockHash": "0xb4af66fcf1b09d9bc703675527b11f878efabe8b8bd3bd03fa65015ee8728f99",
          "blockNumber": "0x773789",
          "transactionHash": "0x865333ae754ae99b6e734d2549e24a0246234940f2131ee84b37737f2bc97829",
          "transactionIndex": "0x82",
          "logIndex": "0x5a",
          "removed": false
        }
      ],
      "logsBloom": "0x00000000000040000000000000000000000000000800000000000000000000000000000000000000000008000000000000000000000000000000000000200000000000000000000200000000000000000000000000200000000000000000000000000000000100000000000000000000000000000000000000800000000000000000000000000000000000000000000000000000000000000000000000000000020000000000080000000000000000000000000000000000000000000000000000000000000000000000000000000000000000000000000800000000000000000010000000000000000000000000000000000000000000000000000000000000",
      "type": "0x2",
      "transactionHash": "0x865333ae754ae99b6e734d2549e24a0246234940f2131ee84b37737f2bc97829",
      "transactionIndex": "0x82",
      "blockHash": "0xb4af66fcf1b09d9bc703675527b11f878efabe8b8bd3bd03fa65015ee8728f99",
      "blockNumber": "0x773789",
      "gasUsed": "0xb530",
      "effectiveGasPrice": "0x153ccef7",
      "from": "0x325e974b12e37eb8a2bbc785a01dcd541b77a5db",
      "to": "0x95a86ece307cf6288f9fae32ff467b886e15a56b",
      "contractAddress": null
    },
    {
      "status": "0x1",
      "cumulativeGasUsed": "0x725173",
      "logs": [
        {
          "address": "0x779877a7b0d9e8603169ddbd7836e478b4624789",
          "topics": [
            "0xddf252ad1be2c89b69c2b068fc378daa952ba7f163c4a11628f55a4df523b3ef",
            "0x000000000000000000000000325e974b12e37eb8a2bbc785a01dcd541b77a5db",
            "0x000000000000000000000000a2865e4f36760f5fa5c8f958336120f2df0d974b"
          ],
          "data": "0x00000000000000000000000000000000000000000000000000407dbd87be6387",
          "blockHash": "0xb4af66fcf1b09d9bc703675527b11f878efabe8b8bd3bd03fa65015ee8728f99",
          "blockNumber": "0x773789",
          "transactionHash": "0xf90456874a676051ca582265f05f4b24a520d4b36a5714e2212f4630c357e62d",
          "transactionIndex": "0x83",
          "logIndex": "0x5b",
          "removed": false
        },
        {
          "address": "0x779877a7b0d9e8603169ddbd7836e478b4624789",
          "topics": [
            "0x8c5be1e5ebec7d5bd14f71427d1e84f3dd0314c0f7b2291e5b200ac8c7c3b925",
            "0x000000000000000000000000325e974b12e37eb8a2bbc785a01dcd541b77a5db",
            "0x0000000000000000000000000bf3de8c5d3e8a2b34d2beeb17abfcebaf363a59"
          ],
          "data": "0x0000000000000000000000000000000000000000000000000000000000000000",
          "blockHash": "0xb4af66fcf1b09d9bc703675527b11f878efabe8b8bd3bd03fa65015ee8728f99",
          "blockNumber": "0x773789",
          "transactionHash": "0xf90456874a676051ca582265f05f4b24a520d4b36a5714e2212f4630c357e62d",
          "transactionIndex": "0x83",
          "logIndex": "0x5c",
          "removed": false
        },
        {
          "address": "0x95a86ece307cf6288f9fae32ff467b886e15a56b",
          "topics": [
            "0xddf252ad1be2c89b69c2b068fc378daa952ba7f163c4a11628f55a4df523b3ef",
            "0x0000000000000000000000000000000000000000000000000000000000000000",
            "0x000000000000000000000000325e974b12e37eb8a2bbc785a01dcd541b77a5db"
          ],
          "data": "0x0000000000000000000000000000000000000000000000000000000f5de81400",
          "blockHash": "0xb4af66fcf1b09d9bc703675527b11f878efabe8b8bd3bd03fa65015ee8728f99",
          "blockNumber": "0x773789",
          "transactionHash": "0xf90456874a676051ca582265f05f4b24a520d4b36a5714e2212f4630c357e62d",
          "transactionIndex": "0x83",
          "logIndex": "0x5d",
          "removed": false
        },
        {
          "address": "0x95a86ece307cf6288f9fae32ff467b886e15a56b",
          "topics": [
            "0xddf252ad1be2c89b69c2b068fc378daa952ba7f163c4a11628f55a4df523b3ef",
            "0x0000000000000000000000000000000000000000000000000000000000000000",
            "0x000000000000000000000000fd4050ba32d384eff38ad66293758eeb913cadc3"
          ],
          "data": "0x0000000000000000000000000000000000000000000000000000000000000000",
          "blockHash": "0xb4af66fcf1b09d9bc703675527b11f878efabe8b8bd3bd03fa65015ee8728f99",
          "blockNumber": "0x773789",
          "transactionHash": "0xf90456874a676051ca582265f05f4b24a520d4b36a5714e2212f4630c357e62d",
          "transactionIndex": "0x83",
          "logIndex": "0x5e",
          "removed": false
        },
        {
          "address": "0x95a86ece307cf6288f9fae32ff467b886e15a56b",
          "topics": [
            "0xddf252ad1be2c89b69c2b068fc378daa952ba7f163c4a11628f55a4df523b3ef",
            "0x000000000000000000000000325e974b12e37eb8a2bbc785a01dcd541b77a5db",
            "0x000000000000000000000000fd4050ba32d384eff38ad66293758eeb913cadc3"
          ],
          "data": "0x000000000000000000000000000000000000000000000000002386f26fc10000",
          "blockHash": "0xb4af66fcf1b09d9bc703675527b11f878efabe8b8bd3bd03fa65015ee8728f99",
          "blockNumber": "0x773789",
          "transactionHash": "0xf90456874a676051ca582265f05f4b24a520d4b36a5714e2212f4630c357e62d",
          "transactionIndex": "0x83",
          "logIndex": "0x5f",
          "removed": false
        },
        {
          "address": "0x95a86ece307cf6288f9fae32ff467b886e15a56b",
          "topics": [
            "0xddf252ad1be2c89b69c2b068fc378daa952ba7f163c4a11628f55a4df523b3ef",
            "0x0000000000000000000000000000000000000000000000000000000000000000",
            "0x000000000000000000000000fd4050ba32d384eff38ad66293758eeb913cadc3"
          ],
          "data": "0x0000000000000000000000000000000000000000000000000000000000000000",
          "blockHash": "0xb4af66fcf1b09d9bc703675527b11f878efabe8b8bd3bd03fa65015ee8728f99",
          "blockNumber": "0x773789",
          "transactionHash": "0xf90456874a676051ca582265f05f4b24a520d4b36a5714e2212f4630c357e62d",
          "transactionIndex": "0x83",
          "logIndex": "0x60",
          "removed": false
        },
        {
          "address": "0x95a86ece307cf6288f9fae32ff467b886e15a56b",
          "topics": [
            "0xddf252ad1be2c89b69c2b068fc378daa952ba7f163c4a11628f55a4df523b3ef",
            "0x000000000000000000000000fd4050ba32d384eff38ad66293758eeb913cadc3",
            "0x0000000000000000000000000000000000000000000000000000000000000000"
          ],
          "data": "0x000000000000000000000000000000000000000000000000002386f26fc10000",
          "blockHash": "0xb4af66fcf1b09d9bc703675527b11f878efabe8b8bd3bd03fa65015ee8728f99",
          "blockNumber": "0x773789",
          "transactionHash": "0xf90456874a676051ca582265f05f4b24a520d4b36a5714e2212f4630c357e62d",
          "transactionIndex": "0x83",
          "logIndex": "0x61",
          "removed": false
        },
        {
          "address": "0xa2865e4f36760f5fa5c8f958336120f2df0d974b",
          "topics": [
            "0xd0c3c799bf9e2639de44391e7f524d229b2b55f5b1ea94b2bf7da42f7243dddd"
          ],
          "data": "0x0000000000000000000000000000000000000000000000000000000000000020000000000000000000000000000000000000000000000000de41ba4fc9d91ad9000000000000000000000000325e974b12e37eb8a2bbc785a01dcd541b77a5db000000000000000000000000325e974b12e37eb8a2bbc785a01dcd541b77a5db00000000000000000000000000000000000000000000000000000000000001d9000000000000000000000000000000000000000000000000000000000000000000000000000000000000000000000000000000000000000000000000000000000000000000000000000000000000000000000000000000000000000000000001000000000000000000000000779877a7b0d9e8603169ddbd7836e478b462478900000000000000000000000000000000000000000000000000407dbd87be638700000000000000000000000000000000000000000000000000000000000001a000000000000000000000000000000000000000000000000000000000000001c00000000000000000000000000000000000000000000000000000000000000220983279f1bda9371bf9e2c3e432901178987e4898f0ac0afa0cda7077c210c2c40000000000000000000000000000000000000000000000000000000000000000000000000000000000000000000000000000000000000000000000000000000100000000000000000000000095a86ece307cf6288f9fae32ff467b886e15a56b000000000000000000000000000000000000000000000000002386f26fc100000000000000000000000000000000000000000000000000000000000000000001000000000000000000000000000000000000000000000000000000000000002000000000000000000000000000000000000000000000000000000000000001600000000000000000000000000000000000000000000000000000000000000020000000000000000000000000000000000000000000000000000000000000008000000000000000000000000000000000000000000000000000000000000000c000000000000000000000000000000000000000000000000000000000000001000000000000000000000000000000000000000000000000000000000000015f900000000000000000000000000000000000000000000000000000000000000020000000000000000000000000fd4050ba32d384eff38ad66293758eeb913cadc30000000000000000000000000000000000000000000000000000000000000020000000000000000000000000342ab7e2f02b77930b1009ed6b513962eacdc42600000000000000000000000000000000000000000000000000000000000000200000000000000000000000000000000000000000000000000000000ba43b7400",
          "blockHash": "0xb4af66fcf1b09d9bc703675527b11f878efabe8b8bd3bd03fa65015ee8728f99",
          "blockNumber": "0x773789",
          "transactionHash": "0xf90456874a676051ca582265f05f4b24a520d4b36a5714e2212f4630c357e62d",
          "transactionIndex": "0x83",
          "logIndex": "0x62",
          "removed": false
        }
      ],
      "logsBloom": "0x00000004000040000000000000000000000000000800000000000000000000000000000000000000000008000000000000000000000000000000000000200000000000000000000200000008000008000000000000200000000000000000000010000000020100000000000000000800000000000000100000800010000000000000000000000000000000000000800000000000000000000000000000000000021000000000080400000000000000000000000000000000000104010000000000000002000000000000000000000000000000000100000900000000000020000010800000000000000000000000000004000800000000000000000000000000",
      "type": "0x2",
      "transactionHash": "0xf90456874a676051ca582265f05f4b24a520d4b36a5714e2212f4630c357e62d",
      "transactionIndex": "0x83",
      "blockHash": "0xb4af66fcf1b09d9bc703675527b11f878efabe8b8bd3bd03fa65015ee8728f99",
      "blockNumber": "0x773789",
      "gasUsed": "0x3e0c6",
      "effectiveGasPrice": "0x153ccef7",
      "from": "0x325e974b12e37eb8a2bbc785a01dcd541b77a5db",
      "to": "0x0bf3de8c5d3e8a2b34d2beeb17abfcebaf363a59",
      "contractAddress": null
    }
  ],
  "libraries": [],
  "pending": [],
  "returns": {},
  "timestamp": 1740865658,
  "chain": 11155111,
  "commit": "29e9245"
}