{
  "transactions": [
    {
      "hash": "0x66b5143fd8f9019a4836ee08aaf8b2bc46794aa3e319166560e28b1d13e17d83",
      "transactionType": "CREATE",
      "contractName": "Vault",
      "contractAddress": "0x3d0650c12650a0da72a6e4fbafc482a11b3b811f",
      "function": null,
      "arguments": [
        "0x0a937815EB558f92A79a1590C6d72Df6707AD598"
      ],
      "transaction": {
        "from": "0x325e974b12e37eb8a2bbc785a01dcd541b77a5db",
        "gas": "0x5bd23",
        "value": "0x0",
        "input": "0x60a060405234801561000f575f5ffd5b506040516104dd3803806104dd83398101604081905261002e9161003f565b6001600160a01b031660805261006c565b5f6020828403121561004f575f5ffd5b81516001600160a01b0381168114610065575f5ffd5b9392505050565b60805161044061009d5f395f818160780152818160b50152818160e60152818161021301526102dd01526104405ff3fe608060405260043610610036575f3560e01c8063d0e30db014610041578063db006a751461004b578063e366aa061461006a575f5ffd5b3661003d57005b5f5ffd5b6100496100b3565b005b348015610056575f5ffd5b506100496100653660046103dc565b6101fc565b348015610075575f5ffd5b507f00000000000000000000000000000000000000000000000000000000000000006040516001600160a01b03909116815260200160405180910390f35b7f00000000000000000000000000000000000000000000000000000000000000006001600160a01b031663156e29f633347f00000000000000000000000000000000000000000000000000000000000000006001600160a01b03166322cfdd246040518163ffffffff1660e01b8152600401602060405180830381865afa158015610140573d5f5f3e3d5ffd5b505050506040513d601f19601f8201168201806040525081019061016491906103f3565b6040516001600160e01b031960e086901b1681526001600160a01b039093166004840152602483019190915260448201526064015f604051808303815f87803b1580156101af575f5ffd5b505af11580156101c1573d5f5f3e3d5ffd5b50506040513481523392507f2da466a7b24304f47e87fa2e1e5a81b9831ce54fec19055ce277ca2f39ba42c4915060200160405180910390a2565b6040516370a0823160e01b81523360048201525f907f00000000000000000000000000000000000000000000000000000000000000006001600160a01b0316906370a0823190602401602060405180830381865afa158015610260573d5f5f3e3d5ffd5b505050506040513d601f19601f8201168201806040525081019061028491906103f3565b90505f198203610292578091505b80828110156102c057604051636f939bc560e11b81526004016102b791815260200190565b60405180910390fd5b50604051632770a7eb60e21b8152336004820152602481018390527f00000000000000000000000000000000000000000000000000000000000000006001600160a01b031690639dc29fac906044015f604051808303815f87803b158015610326575f5ffd5b505af1158015610338573d5f5f3e3d5ffd5b50506040515f925033915084908381818185875af1925050503d805f811461037b576040519150601f19603f3d011682016040523d82523d5f602084013e610380565b606091505b50509050806103a257604051638036e98760e01b815260040160405180910390fd5b60405183815233907f4896181ff8f4543cc00db9fe9b6fb7e6f032b7eb772c72ab1ec1b4d2e03b93699060200160405180910390a2505050565b5f602082840312156103ec575f5ffd5b5035919050565b5f60208284031215610403575f5ffd5b505191905056fea264697066735822122009de3ec52d3a7e250950195142b924d40aac5cc894d4ba93c788c4f50ce1daf264736f6c634300081b00330000000000000000000000000a937815eb558f92a79a1590c6d72df6707ad598",
        "nonce": "0x224",
        "chainId": "0xaa36a7"
      },
      "additionalContracts": [],
      "isFixedGasLimit": false
    },
    {
      "hash": "0x44f64de6bb4b3050e84ff50b9e66adcc9075105475a7e342d422fd4dcbabe04c",
      "transactionType": "CALL",
      "contractName": null,
      "contractAddress": "0x0a937815eb558f92a79a1590c6d72df6707ad598",
      "function": "grantMintAndBurnRole(address)",
      "arguments": [
        "0x3D0650C12650A0Da72a6E4fBafC482A11B3b811F"
      ],
      "transaction": {
        "from": "0x325e974b12e37eb8a2bbc785a01dcd541b77a5db",
        "to": "0x0a937815eb558f92a79a1590c6d72df6707ad598",
        "gas": "0x10601",
        "value": "0x0",
        "input": "0x7cfb3d710000000000000000000000003d0650c12650a0da72a6e4fbafc482a11b3b811f",
        "nonce": "0x225",
        "chainId": "0xaa36a7"
      },
      "additionalContracts": [],
      "isFixedGasLimit": false
    }
  ],
  "receipts": [
    {
      "status": "0x1",
      "cumulativeGasUsed": "0xa2b9a2",
      "logs": [],
      "logsBloom": "0x00000000000000000000000000000000000000000000000000000000000000000000000000000000000000000000000000000000000000000000000000000000000000000000000000000000000000000000000000000000000000000000000000000000000000000000000000000000000000000000000000000000000000000000000000000000000000000000000000000000000000000000000000000000000000000000000000000000000000000000000000000000000000000000000000000000000000000000000000000000000000000000000000000000000000000000000000000000000000000000000000000000000000000000000000000000",
      "type": "0x2",
      "transactionHash": "0x66b5143fd8f9019a4836ee08aaf8b2bc46794aa3e319166560e28b1d13e17d83",
      "transactionIndex": "0xa6",
      "blockHash": "0x611e1add571107ef7999c7e4363047b19cc9b5fd5b62cda133d6ef08d3eafda9",
      "blockNumber": "0x77363c",
      "gasUsed": "0x46a1b",
      "effectiveGasPrice": "0x224fdc132",
      "from": "0x325e974b12e37eb8a2bbc785a01dcd541b77a5db",
      "to": null,
      "contractAddress": "0x3d0650c12650a0da72a6e4fbafc482a11b3b811f"
    },
    {
      "status": "0x1",
      "cumulativeGasUsed": "0xb77430",
      "logs": [
        {
          "address": "0x0a937815eb558f92a79a1590c6d72df6707ad598",
          "topics": [
            "0x2f8788117e7eff1d82e926ec794901d17c78024a50270940304540a733656f0d",
            "0x7429555b03aa5cf08cc5fc0890c97db295c9cec5e6bb1544bcd7fd1430dae3e2",
            "0x0000000000000000000000003d0650c12650a0da72a6e4fbafc482a11b3b811f",
            "0x000000000000000000000000325e974b12e37eb8a2bbc785a01dcd541b77a5db"
          ],
          "data": "0x",
          "blockHash": "0x611e1add571107ef7999c7e4363047b19cc9b5fd5b62cda133d6ef08d3eafda9",
          "blockNumber": "0x77363c",
          "transactionHash": "0x44f64de6bb4b3050e84ff50b9e66adcc9075105475a7e342d422fd4dcbabe04c",
          "transactionIndex": "0xb1",
          "logIndex": "0x66",
          "removed": false
        }
      ],
      "logsBloom": "0x00000004000000000000000000000000000000000000000000000000000000000000000008000000000008000000000000000000000000000000000000010000000000000000000000000000000010000000000000200000000000000000000000000000100000002000000000000000000000000000000000800000000000000000000000000000000000800000000000000000000000000000000000000000000000000000000000000000000000000000000000000004801000000000000000000000000000000000000000020000000000000000000100000000000000000000000000000000000000000000000000000000000000000000000000000000",
      "type": "0x2",
      "transactionHash": "0x44f64de6bb4b3050e84ff50b9e66adcc9075105475a7e342d422fd4dcbabe04c",
      "transactionIndex": "0xb1",
      "blockHash": "0x611e1add571107ef7999c7e4363047b19cc9b5fd5b62cda133d6ef08d3eafda9",
      "blockNumber": "0x77363c",
      "gasUsed": "0xbdb0",
      "effectiveGasPrice": "0x224fdc132",
      "from": "0x325e974b12e37eb8a2bbc785a01dcd541b77a5db",
      "to": "0x0a937815eb558f92a79a1590c6d72df6707ad598",
      "contractAddress": null
    }
  ],
  "libraries": [],
  "pending": [],
  "returns": {
    "vault": {
      "internal_type": "contract Vault",
      "value": "0x3D0650C12650A0Da72a6E4fBafC482A11B3b811F"
    }
  },
  "timestamp": 1740861529,
  "chain": 11155111,
  "commit": "29e9245"
}